:020000040800F2
:10000000201200206D0200084B1F0008011D00088F
:10001000491F0008C7040008BF3B0008000000009B
:10002000000000000000000000000000992300080C
:10003000D504000800000000EF2100089B23000801
:10004000870200088702000887020008870200086C
:100050008702000887020008D7040008870200080A
:10006000870200088702000887020008870200084C
:10007000870200088702000887020008870200083C
:10008000870200088702000887020008870200082C
:10009000870200088702000887020008870200081C
:1000A000870200088702000887020008870200080C
:1000B000870200080000000000000000870200081E
:1000C000870200080000000000000000870200080E
:1000D00000000000870200088702000800000000FE
:1000E00087020008870200080000000000000000EE
:1000F0000000000000000000000000000000000000
:10010000000000000000000000000000870200085E
:100110000000000000000000A5240008870200087D
:10012000870200088702000887020008870200088B
:10013000870200080000000000000000000000002E
:100140008702000887020008870200084D3B00086C
:10015000870200088702000887020008870200085B
:1001600087020008870200088702000800000000DC
:10017000870200088702000800000000000000005D
:1001800087020008870200088702000800F002F8D2
:1001900000F05CF80AA090E8000C82448344AAF1C5
:1001A0000107DA4501D100F051F8AFF2090EBAE8C3
:1001B0000F0013F0010F18BFFB1A43F0010318479B
:1001C000943A0000B43A00000A444FF0000C10F8D2
:1001D000013B13F0070408BF10F8014B1D1108BFC5
:1001E00010F8015B641E05D010F8016B641E01F865
:1001F000016BF9D113F0080F1EBF10F8014BAD1CB5
:100200000C1B09D16D1E58BF01F801CBFAD505E0D2
:1002100014F8016B01F8016B6D1EF9D59142D6D32C
:10022000704700000023002400250026103A28BF54
:1002300078C1FBD8520728BF30C148BF0B60704758
:100240001FB503F0DEFC1FBD10B510BD00F001F9B5
:100250001146FFF7F5FF03F0C3FC00F01FF903B4EC
:10026000FFF7F2FF03BC00F027F9000009488047C0
:1002700009480047FEE7FEE7FEE7FEE7FEE7FEE788
:10028000FEE7FEE7FEE7FEE704480549054A064BA0
:1002900070470000612400088D010008200A00203A
:1002A00020120020200E0020200E002053EA020C15
:1002B00000F069802DE9F04B4FF00006002B1FBFC6
:1002C000B3FA83F503FA05F424FA05F65E4012BF8B
:1002D0001643B2FA82F502FA05F4C5F120051EBFF5
:1002E00022FA05FC44EA0C04203556EA044C4FEA95
:1002F000144418BF641C4FF000084FF000099042EE
:1003000071EB030C39D3002919BFB1FA81F701FA57
:1003100007F6B0FA80F700FA07F6C7F120071EBF0C
:1003200020FA07FC46EA0C062037B6FBF4FCA7EBE4
:100330000507103F07F01F0BCBF120060CFA0BFB53
:100340002CFA06F644BFB3460026202FA4BF5E4613
:100350004FF0000B5BEA060C08BF4FF0010B19EBE6
:100360000B09ABFB027C48EB0608C01B06FB02CC6A
:100370000BFB03CC71EB0C01C1E70B460246414677
:100380004846BDE8F08B13B54FF000004FF0000178
:10039000AFF30080BDE81C40704710B5203AC0F0B4
:1003A0000B80B1E81850203AA0E81850B1E8185076
:1003B000A0E81850BFF4F5AF5FEA027C24BFB1E8B3
:1003C0001850A0E8185044BF18C918C0BDE8104024
:1003D0005FEA827C24BF51F8043B40F8043B08BF2D
:1003E0007047D20728BF31F8023B48BF11F8012BF4
:1003F00028BF20F8023B48BF00F8012B70474FF0A0
:10040000000200B5134694469646203922BFA0E864
:100410000C50A0E80C50B1F12001BFF4F7AF090770
:1004200028BFA0E80C5048BF0CC05DF804EB890061
:1004300028BF40F8042B08BF704748BF20F8022BA4
:1004400011F0804F18BF00F8012B704770477047BC
:100450007047754600F02CF8AE46050069465346D5
:1004600020F00700854618B020B5FFF70DFFBDE866
:1004700020404FF000064FF000074FF000084FF00B
:10048000000B21F00701AC46ACE8C009ACE8C0099C
:10049000ACE8C009ACE8C0098D46704710B5044609
:1004A000AFF300802046BDE81040FFF7D8BE000043
:1004B00000487047BC09002001491820ABBEFEE788
:1004C000260002007047FEE70020704700207047BA
:1004D000002070477047012000F002B87047704755
:1004E000044910B50A68024202D00860FFF7F7FF1E
:1004F00010BD0000140401402DE9F84FDFF870B181
:10050000002301274FF0030A4FF00F090BF1040EEF
:10051000A7E000BF07FA03F6324070D04C68022C07
:1005200001D0122C10D1DC0800EB8408D8F8204050
:100530005D074FEAD56C09FA0CF5AC430D6905FA75
:100540000CF52543C8F82050D0F800805D0091F8E4
:1005500004C00AFA05F40CF0030C28EA04080CFAAB
:1005600005FC4CEA080CC0F800C0D1F804C0BCF18E
:10057000010F08D0BCF1020F05D0BCF1110F02D061
:10058000BCF1120F16D1D0F808C0D1F80C802CEABB
:10059000040C08FA05F848EA0C08C0F80880D0F8FE
:1005A00004C02CEA060C0E79C6F300169E4046EAFB
:1005B0000C064660C668A6438C68AC403443C460F1
:1005C0004C68E4004CD52B4C256E45F001052566A2
:1005D000246E23F0030504F001040094264C2E1928
:1005E000B4689D074FEA157C09FA0CF5AC43B0F1ED
:1005F000904F05D0214DA84204D1012508E02FE0FD
:10060000002505E01E4DA84201D1022500E0072586
:1006100005FA0CF52543B560DBF800405D464E68F1
:100620009443F60300D514432C60DEF80040754671
:100630004E689443B60300D514432C600C4D083526
:100640002C684E689443F60200D514432C60084D84
:100650000C352C684E689443B60200D514432C60C8
:100660005B1C0A6832FA03F47FF454AF00F00AB856
:100670000004014000100240000001400004004856
:100680000008004818BCBDE8E08F0AB181617047DE
:100690008162704701488068704700007400002044
:1006A00002488168426811448160704774000020EC
:1006B00010B50024032000F073F8002000F008F8C3
:1006C00008B1012401E000F025F8204610BD00002B
:1006D00070B50E4E05460024706898B14FF47A71DB
:1006E000B1FBF0F00A490968B1FBF0F001F05EF9E6
:1006F00040B9102D06D200222946501E00F030F8D5
:10070000356000E00124204670BD00007400002028
:10071000800000200A4882B0016E41F001010166AC
:10072000016E01F001010091816D41F08051816500
:10073000806D00F080500090052002B000F030B8CD
:1007400000100240002809DB00F01F020121914047
:100750004009800000F1E020C0F80011704700005F
:10076000F0B40E4B1B680C46C3F30223C3F107051C
:10077000042D00D90425191D072901D2002300E00A
:10078000DB1E012606FA05F1491E214099409E40D4
:10079000761E16403143F0BC03F012BA0CED00E0B7
:1007A000064900F0070208684FF6FF03184040EAC8
:1007B0000220034A10430860704700000CED00E07F
:1007C0000000FA0501220168C0F86822002280F8C2
:1007D000602231F8540F40F001000880088840F092
:1007E000020008801046704770B50F4D044669B18D
:1007F00001290AD1D4F8700202F0C5FCA0690028D2
:1008000003D0286840F00600286070BDA06928B1B8
:1008100001F0C6FD286820F006002860D4F87002B8
:10082000BDE8704002F03DBC10ED00E010B50C06D4
:1008300005D501F0070100EB4110283003E000EB83
:10084000411000F5947099B232B101220273018116
:10085000190C4181002010BD00220273C180F9E70C
:1008600000EB4112D0F87002D26B02F0E1BA00EB5B
:100870004112D0F87002D2F83C2102F03CBB70B5B6
:1008800004460B0601F0070004EB40114FF0010293
:100890004FF0000503D581F82920283103E081F8C5
:1008A000295101F59471087094F82802012808D0A4
:1008B00084F82822206802F07DFF84F82852002066
:1008C00070BD022070BD70B5044601F00F00626873
:1008D000904201D9012070BD0B0601F0070004EB26
:1008E00040114FF001024FF0000503D581F8292097
:1008F000283103E081F8295101F594718D70087059
:1009000094F82802012808D084F82822206802F0F0
:10091000FFFF84F82852002070BD022070BD2DE931
:10092000F04104460F0601F0070004EB40114FF0C0
:1009300001064FF0000503D581F82960283103E056
:1009400081F8295101F5947108700A61CB704A78D9
:1009500002B1C881022B00D10D7194F82802012840
:1009600009D084F82862206802F0F2FD284684F855
:100970002852BDE8F0810220FBE770B50C4601F07B
:10098000070500EB4511C1E94F230022C1F84421BE
:1009900081F8292181F8285101F5947162070068D6
:1009A00003F00BF8002070BD70B504460D4601F051
:1009B00007006168884201D9012070BD29064FF007
:1009C00000064FF0010205D504EB401181F8292003
:1009D000283105E004EB451181F8296101F5947196
:1009E0008A70087094F82802012807D084F8282219
:1009F000206802F0C9FF680702D006E0022070BD3F
:100A000004F50C71206802F081FF84F82862002050
:100A100070BD70B50C4601F0070500EB4511C1E94A
:100A20000F2300224A64012281F8292001F8285F5F
:100A30006207006802F0C1FF002070BD10B50446D7
:100A4000006803F089F8000402D5204601F07EFA20
:100A5000206803F081F840050CD5206830F8441F69
:100A600021F480610180204600F034F90021204605
:100A700000F05CF9206803F06FF8400405D52068A9
:100A800030F8441F21F480410180206803F064F8AD
:100A9000800405D5206830F8441F21F400510180FE
:100AA000206803F059F8C0041FD5206830F8401FB3
:100AB00021F004010180206830F8401F21F0080176
:100AC000018094F86002012806D1002084F86002B9
:100AD00001462046FFF788FE204600F00FF9206807
:100AE00030F8441F21F480510180206803F034F86D
:100AF00000051AD5206830F8401F41F00801018038
:100B0000206830F8441F21F400610180206830F82B
:100B1000401F41F004010180206803F01DF8C0432C
:100B2000C00402D5204600F031F9206803F014F823
:100B300000060BD5206830F8441F21F080010180A9
:100B400094F86002E0B1204600F020F9206803F03C
:100B500003F8800508D5206830F8441F21F400719F
:100B60000180204600F0DEF8206802F0F5FFC005A5
:100B700005D5206830F8441F21F48071018010BD34
:100B8000206830F8401F41F004010180206830F8EF
:100B9000401F41F008010180012084F860022068B4
:100BA000B0F854003C2101EA9000C4F8640201212D
:100BB0002046FFF719FEC9E72DE9F04186B0040091
:100BC00004D094F82902002520B108E0012006B0E5
:100BD000BDE8F08184F82852204600F05DF803203B
:100BE00084F82902206802F089FE04F11001142221
:100BF00088466846FFF7D1FB94E80F0002F0D8FD65
:100C00000227B0BB0021206802F0BDFF00200126B2
:100C10000DE000BF04EB401181F8296001F8280FB6
:100C2000C881CD700D614D61401CC0B28D6161689D
:100C30008142EFD800200FE004EB401181F82951E8
:100C400081F8280181F82B51C1F83851C1F83C5185
:100C5000401CC0B2C1F8405161688142ECD81422F6
:100C600041466846FFF799FB94E80F0002F037FE13
:100C700010B184F82972A9E784F8245084F8296215
:100C8000E069012802D12046FFF79CFD206802F0B0
:100C90001FFE00209BE7000008B500680B49884252
:100CA00012D10B48816D41F080618165806D002219
:100CB00000F08060009001214320FFF751FDBDE866
:100CC00008404320FFF73EBD08BD0000006800401B
:100CD0000010024070B5044680680125022801D04A
:100CE000FFF7FCFB2946D4F8700202F0ECF9D4F8C7
:100CF0007002BDE8704002F0ACB9000010B50446C7
:100D0000806930B10648016821F00601016001F0F8
:100D100047FBD4F87002BDE8104002F0C2B90000F1
:100D200010ED00E0D0F8700202F0C1B910B5044631
:100D300090F8280201280BD0012084F8280284F8BA
:100D40002410206802F021FF002084F8280210BD42
:100D5000022010BDD0F8702200F50C71104602F090
:100D6000C5B910B5044690F8280201280CD001201E
:100D700084F82802206802F0A4FD206802F0DEFE5C
:100D8000002084F8280210BD022010BD10B50446D2
:100D9000D0F8700202F0F7F9A069002804D00348E7
:100DA000016841F00601016010BD000010ED00E097
:100DB0001649B0F5007F0868C0F3412009D0022829
:100DC00005D0086820F4C06040F48060086000200E
:100DD00070470128FBD0086820F4C06040F4007020
:100DE00008600B483222006850430A4AB0FBF2F018
:100DF000401C00E0401E4A69520501D50028F9D187
:100E000048694005E3D503207047000000700040AA
:100E10008000002040420F000248416841F4806198
:100E200041607047007000400248006800F4C060F4
:100E3000704700000070004010498A6B42F08072D9
:100E40008A638A6B22F080728A63D0E900121143B0
:100E500082681143C2680A43018A42EA0142084992
:100E60004A600A68406922F47C5242EA0020086025
:100E7000086840F060000860704700000010024001
:100E8000006000402DE9F84F0446002700889C4D83
:100E90003E46000515D5E06B60B1B0F5000F04D0FB
:100EA000B0F5400F2BD001270AE0E86840F480300D
:100EB000E86024E00021201D01F09AF907001ED00F
:100EC0003E462068800338D5A86D4FF00008C0006A
:100ED00009D4A86D40F08050A865A86D4FF00108B6
:100EE00000F080500090DFF81CA2DAF8001041F406
:100EF0008071CAF80010FFF7CDFB814610E0D5F8ED
:100F00008800E16B20F440000843C5F88800D8E76A
:100F1000FFF7C0FBA0EB0900022801D9032704E07A
:100F2000DAF80000C005F3D5EFB33E46B8F1000F84
:100F300003D0A86D20F08050A8652078C00707D0A6
:100F4000D5F88800216A20F003000843C5F888001E
:100F50002078800707D5D5F88800616A20F00C005A
:100F60000843C5F888002078800607D5D5F88800A2
:100F7000A16A20F440600843C5F8880020888005F5
:100F800007D5D5F88800616B20F440200843C5F8E8
:100F900088002088400509D5D5F88800A16B20F489
:100FA0004010084300E02EE0C5F888002078400695
:100FB00007D5D5F88800E16A20F440500843C5F809
:100FC00088002088C00507D5D5F88800216B20F45B
:100FD00040300843C5F8880020884FF0006780043F
:100FE0004FF080684ED5D5F88800216C20F0406025
:100FF0000843C5F88800206CB8423BD1E86840F44B
:101000008010E8603EE0D5F8900010F4407014D0F5
:10101000216D814211D0D5F89000D5F8901020F4C0
:10102000407041F48031C5F89010D5F8901021F44B
:101030008031C5F89010C5F89000C00711D0FFF7B7
:1010400029FB074641F2883907E000BFFFF722FB82
:10105000C11B494501D9032668E7D5F890008007F0
:10106000F4D5D5F89000216D20F440700843C5F800
:1010700090005BE7404505D10121201D01F0B8F843
:1010800000B106462068400317D5D5F88800616C8A
:1010900020F040600843C5F88800606CB84204D175
:1010A000E86840F48010E86007E0404505D1012180
:1010B000201D01F09DF800B106462088400411D59E
:1010C000D5F88800A16C20F040500843C5F888008E
:1010D000A06CB0F1805F05D10221201D01F088F8DD
:1010E00000B106462088000406D555F8880FE16C4B
:1010F00020F0804008432860304600F005B800002A
:10110000001002400070004018BCBDE8E08F0000F5
:101110002DE9F0470F46050058D0404E306800F0EA
:101120000700B84209D2306820F007003843306029
:10113000306800F00700B84248D12878384CC00722
:101140002CD06868032811D0022812D0216898B1E9
:10115000490500293ADAA16821F003010143A160A1
:10116000FFF798FA804641F2883910E0216889013A
:10117000EFE721688903ECE78907EAE7FFF78AFAD6
:10118000A0EB0801494502D90320BDE8F087A0681B
:10119000696800F00C00B0EB810FEFD12878800770
:1011A00005D5A068A96820F0F0000843A060306869
:1011B00000F00700B8420BD9306820F00700384330
:1011C0003060306800F00700B84201D00120DCE751
:1011D0002878400705D5A068E96820F4E060084356
:1011E000A0602878000706D5A068296920F460501F
:1011F00040EAC100A06000F03FF8A168094AC1F3CD
:101200000311515C01F01F01C840074908600748FD
:101210000068BDE8F047FFF75BBA0000002002401D
:10122000001002400C3C00088000002074000020E8
:101230000548064900688968054AC1F30221515CE6
:1012400001F01F01C84070478000002000100240DC
:101250004C3C00080548064900688968054AC1F306
:10126000C221515C01F01F01C8407047800000207E
:10127000001002404C3C000870B525490023184678
:101280008A68CC6812F00C0204F00306214C4FEA85
:10129000640509D00C2A05D0042A32D0082A00D1CE
:1012A000284670BD012E10D10B681B0704D4D1F85D
:1012B0009430C3F3032302E00B68C3F30313164E09
:1012C00056F82330DAB10C2AEBD1C86800F00300DD
:1012D000022818D0032818D01846CA68CB68C2F371
:1012E0000212C3F306234343521CB3FBF2F2C86855
:1012F000C0F34160401C4000B2FBF0F070BD1846E6
:1013000070BD204670BD2046E7E72846E5E70000AF
:10131000001002400024F4001C3C00082DE9F843B2
:1013200004006ED0FD4DA86800F00C06E86800F0DF
:1013300003072078C00663D576B10C2E01D1012FAA
:101340000AD0A0690028286878D040F00100286001
:10135000FFF7A0F980465BE02868800702D5A06906
:101360000028DED0216A2868000703D5286800F02D
:10137000F00004E0D5F89400F02202EA1010814257
:1013800016D9084600F0CAFF00283AD1286840F074
:10139000080028602868216A20F0F00008432860CF
:1013A0006868E16920F47F4040EA0120686015E048
:1013B000286840F0080028602868216A20F0F000C2
:1013C000084328606868E16920F47F4040EA012012
:1013D0006860206A00F0A2FF0028D6D1FFF74CFF1A
:1013E000A968CF4AC1F30311515C01F01F01C84045
:1013F000CC490860CC480068FFF76AF900287DD125
:101400002DE0C9E0FFF746F9A0EB0800022876D8E6
:1014100028688007F6D5286840F00800286028680A
:10142000216A20F0F000084328606868E16920F430
:101430007F4040EA0120686011E0FFE720F00100F2
:101440002860FFF727F9804606E000BFFFF722F982
:10145000A0EB08000228DAD828688007F6D42078A4
:10146000C00740D0082E18D00C2E01D1032F14D065
:101470006068B0F5803F17D0B0F5A02F286817D06E
:1014800020F480302860286820F48020286060687C
:10149000E0B1FFF7FFF8804614E02868800322D50A
:1014A0006068002878D01EE0286840F48030EDE7BE
:1014B00040F480202860F7E7FFF7ECF8A0EB080085
:1014C0006428A4D828688003F6D50CE0FFF7E2F87A
:1014D000804605E0FFF7DEF8A0EB0800642896D808
:1014E00028688003F6D4207880073BD5042E11D0DD
:1014F0000C2E01D1022F0DD0E06801E064E1B8E0CC
:10150000002828681ED040F480702860FFF7C2F8D9
:1015100007460CE0286840050CD5E0680028C1D0DB
:1015200008E000BFFFF7B6F8C01B022893D8286870
:101530004005F7D56868217C20F0F85040EA01604A
:1015400068600FE020F480702860FFF7A3F807467A
:1015500005E000BFFFF79EF8C01B0228B1D828683D
:101560004005F7D42078000729D560690028D5F810
:10157000940012D040F00100C5F89400FFF78AF8FB
:10158000074604E0FFF786F8C01B022871D8D5F89B
:1015900094008007F6D512E04CE120F00100C5F878
:1015A0009400FFF777F8074605E000BFFFF772F8F1
:1015B000C01B02285DD8D5F894008007F6D42078A7
:1015C000400766D5A86D0027C00008D4A86D40F07C
:1015D0008050A865A86D012700F080500090534806
:1015E0000168C90512D40168814641F48071016027
:1015F000FFF750F8804605E0FFF74CF8A0EB080035
:10160000022836D8D9F80000C005F5D5A068012811
:1016100016D00528D5F8900017D020F00100C5F8A5
:101620009000D5F8900020F0040000BFC5F89000AD
:10163000A06841F28839C0B1FFF72CF880460FE06E
:10164000D5F8900040F00100F0E740F00400C5F844
:101650009000F5E7FFF71EF8A0EB0801494508D810
:10166000D5F890008007F5D50EE0FFF713F8804617
:1016700006E07CE0FFF70EF8A0EB0801494576D8BC
:10168000D5F890008007F5D41FB1A86D20F08050E8
:10169000A8652078800628D5606A0028D5F89800CB
:1016A00012D040F00100C5F89800FEF7F3FF07469E
:1016B00005E000BFFEF7EEFFC01B022857D8D5F8A3
:1016C00098008007F6D510E020F00100C5F89800DA
:1016D000FEF7E0FF074604E0FEF7DCFFC01B022830
:1016E00071D8D5F898008007F6D4A06AF0B30C2E14
:1016F00071D00228286820F0807028601AD02868ED
:10170000000103D4E86820F00300E860E8680849B5
:101710000840E860FEF7BEFF044657E000100240B4
:101720000C3C000880000020740000200070004085
:10173000FFFFEEFEFEF7AEFF064604E0FEF7AAFF4F
:10174000801B02283FD828688001F7D4F4E90B01F8
:101750006FF00F0202EB01110843218A490852047D
:1017600002EB4151A26841EA022101E064E02AE073
:101770000843217D4FF07E42490802EB4161084356
:10178000217B40EAC160E9682C4A11400843E860C7
:10179000286840F080702860E86840F08070E86059
:1017A000FEF778FF044604E0FEF774FF001B0228F2
:1017B00009D828688001F7D53EE000BFFEF76AFF30
:1017C000001B022802D90320BDE8F88328688001A5
:1017D000F4D431E0FFE70128F6D0E868E26A00F0CF
:1017E0000301914226D1216B00F0700209011039EA
:1017F00091421FD1626B00F4FE41B1EB022F19D16F
:1018000094F8382000F07841B1EBC26F12D1A18F6B
:1018100000F4C00249084905A1F50011914209D11F
:1018200094F8401000F0C06049084906A1F1007129
:10183000814201D00120C7E70020C5E78C809D01CF
:1018400070B5040003D06079002510B105E00120D7
:1018500070BD2571204600F00DF8022060712068EF
:10186000016841F00401016001206071A560002061
:1018700070BD000008B500680649884208D10648D6
:10188000C16C41F48021C164C06C00F480200090E0
:1018900008BD000000080650001002402DE9F0418C
:1018A000040005D00025A56294F85D0018B107E09A
:1018B0000120BDE8F08184F85C50204600F044F837
:1018C000022384F85D302068016821F04001016046
:1018D000E0684FF4E066B04201D9002101E04FF426
:1018E0008051B0F5706F02D0B04200D0A562276B76
:1018F000012227B9B04201D9236300E02263D4E971
:1019000001031843D4E9043633431843238B03F40B
:1019100000731843E3691843236A1843A36A184302
:1019200023681860636B606AA66918430427E3683C
:1019300007EA164633431843084321684860256682
:1019400084F85D200020B4E710B586B00446142169
:101950006846FEF754FD1349206888421FD112489B
:10196000016E41F480510166016E01F480510591D0
:10197000C16C41F00101C164C06C694600F0010016
:101980000590E020009002200190002002900320AA
:101990000390052004904FF09040FEF7ADFD06B097
:1019A00010BD0000003001400010024010B5401E84
:1019B000B0F1807F01D3012010BD4FF0E0246061C1
:1019C0000F21601702F0FCF80020A06107202061C1
:1019D000002010BD704770477047000070B590F848
:1019E0003C20012A21D0012480F83C40022280F8CA
:1019F0003D2003685A689D680D4EB34203D122F41E
:101A000070064A68324322F070060A6889683243D9
:101A100025F0800529435A600268916080F83D40B6
:101A2000002180F83C10084670BD022070BD000007
:101A3000002C014010B5040003D094F83D0010B113
:101A400007E0012010BD002084F83C00204600F093
:101A50000DF8022084F83D00211D206800F028FDCB
:101A6000012084F83D00002010BD000008B500688A
:101A70000B49884212D10B48816D41F010018165FC
:101A8000806D012200F01000009011463620FEF714
:101A900067FEBDE808403620FEF754BE08BD0000D2
:101AA0000010004000100240704770B50446006806
:101AB00001694FF00005C943890715D4C168C943BE
:101AC000890711D4E91E016101202077206880690F
:101AD0008007204602D0FFF7E7FF04E000F0A7F8F8
:101AE000204600F0A5F8257720680169C943490719
:101AF00017D4C168C943490713D46FF004010161C9
:101B0000022020772068806910F4407F204602D0B0
:101B1000FFF7CAFF04E000F08AF8204600F088F8DA
:101B2000257720680169C943090716D4C168C943EC
:101B3000090712D46FF008010161042020772068A2
:101B4000C0698007204602D0FFF7AEFF04E000F036
:101B50006EF8204600F06CF8257720680169C943CB
:101B6000C90617D4C168C943C90613D46FF0100160
:101B70000161082020772068C06910F4407F20466A
:101B800002D0FFF791FF04E000F051F8204600F08A
:101B90004FF8257720680169C943C90708D1C16892
:101BA000C943C90704D1891E0161204600F041F8EC
:101BB00020680169C943090609D4C168C9430906F7
:101BC00005D46FF0800101612046FFF704FF206813
:101BD0000169C943C90509D4C168C943090605D4C7
:101BE0006FF4807101612046FFF7F4FE20680169FF
:101BF000C943490609D4C168C943490605D46FF0F1
:101C000040010161204600F015F820680169C943D0
:101C100089060BD4C168C943890607D46FF0200137
:101C200001612046BDE87040FFF7D6BE70BD704729
:101C300070477047704710B5040002D0606F10B154
:101C400007E0012010BD002084F87000204600F05D
:101C500025F8242060672068016821F001010160F7
:101C6000204600F0EBFC0128ECD0606A10B1204661
:101C700000F054FC2068416821F4904141602068E4
:101C8000816821F02A0181602068016841F001012A
:101C900001602046BDE8104000F0A4BC10B586B03D
:101CA000044614216846FEF7AAFB134920688842BF
:101CB0001FD11248C16D41F00101C165C16D01F034
:101CC00001010591C16C41F00101C164C06C69461C
:101CD00000F0010005900C200090022001900020EF
:101CE000029003200390082004904FF09040FEF7EC
:101CF00003FC06B010BD0000008000400010024050
:101D0000FEE70000F0B500230A24302537261F46E1
:101D100011E000BFB4EB107F02D905EB107C01E0AD
:101D200006EB107C01F813C001EB430C00015B1CB7
:101D30008CF80170DBB29342ECD3F0BDF0B587B004
:101D400014216846FEF75BFB2848C16C41F0010195
:101D5000C164C16C01F001010591C16C41F0020147
:101D6000C164C16C01F002010591C16C41F08001B8
:101D7000C164C06C4FF0904600F0800005900122D5
:101D800010213046FEF781FC194F00220821384609
:101D9000FEF77BFC012417486946CDE90040304638
:101DA0000294FEF7A9FB102000258DE8310069465A
:101DB00030460394FEF7A0FB08260096CDE90145C6
:101DC000694638460395FEF797FBCDE900656946FD
:101DD00009480295FEF790FB002201210620FEF73C
:101DE000BFFC0620FEF7AEFC07B0F0BD00100240BD
:101DF0000004004800002110001C00480D4810B5E8
:101E00000B4901604FF4E1314160002181600C22F7
:101E1000C160C0E90412816101624162FFF70BFFFA
:101E2000002803D0BDE81040FEF758BB10BD0000ED
:101E3000008000405C010020074910B5054808609B
:101E40000846FFF7FDFC002803D0BDE81040FEF770
:101E500045BB10BD00080650DC010020124810B53B
:101E6000104901604FF48271416000214FF4E0623B
:101E7000C0E902120222C0E904211202826110228A
:101E8000C0E9072107224162C0E90A120163082163
:101E90004163FFF703FD002803D0BDE81040FEF7C3
:101EA0001DBB10BD00300140EC0100203EB50024F8
:101EB0000F48009401940D49029401604FF4FA51C7
:101EC000C0E9011409218461C160FFF7B3FD08B1C5
:101ED000FEF704FB0094694605480294FFF77EFD77
:101EE000002801D0FEF7FAFA3EBD000000100040C5
:101EF0005002002010B500220F49104800F063FF87
:101F000008B1FEF7EBFA0E490C4801F069F908B187
:101F1000FEF7E4FA0B49094800F061FD08B1FEF74D
:101F2000DDFA064801F0B2F9002803D0BDE8104000
:101F3000FEF7D4BA10BD000000000020900200207F
:101F40008800002064000020FEE770472DE9F05F64
:101F5000044640F68F7B48F60F7A40F2024937E19B
:101F6000B0F8441011F00F0627D030F8267039046D
:101F700073D530F8261001EA0B0141F0800120F8FA
:101F8000261004EB461595F8340105F594750028E4
:101F900020687DD0297830F821205204B0F85020F4
:101FA00002EB000375D509EBC101595AC1F30901D0
:101FB0005FEA01086ED02A89C2E0C9062BD40188E5
:101FC00001EA0A0141F400410180206804F128057A
:101FD000B0F850102A78014409EBC200085AC0F347
:101FE00009006064E16B0844E06300212046FEF7CD
:101FF00037FC94F824000028B1D0A8690028AED19D
:1020000094F8240040F080012068A0F84C100020D3
:1020100084F82400DCE0018804F594750A051DD5D8
:10202000B0F850102A78014440F2064000EBC2009C
:10203000085A04F50C71C0F30903EB61EA882068C3
:1020400001F08DFD2168088800EA0B0040F0800057
:1020500008802046FEF77EFEBAE097E0090443D5EB
:10206000018801EA0B0141F0800101802068B0F88D
:1020700050102A78014440F2064000EBC200085A92
:1020800083059B0DEB6111D0696979B1EA8802E0A3
:1020900037E04AE058E0206801F061FDE9696869CD
:1020A0000844686100212046FEF7E1FB2068B0F893
:1020B00050100844296900F20640B1B13E291AD2F5
:1020C0004A08C90700D0521C4FF6FF7101EA82216D
:1020D0000180216808884BF68F72104080F44050D0
:1020E00048F280021043088072E0018821F4F84130
:1020F00041F40041ECE749094FF4004242EA8121F2
:10210000E6E7B0F850102B78014440F2064202EBAB
:10211000C302895AC1F309015FEA010820D0EA88A5
:102120004346696901F01BFD1AE040F2064202EBEA
:10213000C101595AC1F309015FEA010804D06A8953
:102140004346696901F00BFD2978226832F82100C5
:1021500048F68F73184048F2C003184322F8210054
:10216000E96901EB0800E861686900EB08026A614F
:10217000AB6913B12869404504D929782046FEF798
:1021800076FB03E029782046FEF7F7FB38061FD5DB
:10219000226804EB461032F8261001EA0A0141F4E5
:1021A000004122F826102168B1F85020531810F889
:1021B000282F09EBC201595AC1F30901C1614269D3
:1021C0000A44426101788369204653B1FEF721FC3D
:1021D0002068B0F8441009043FF5C2AE002000F0BA
:1021E00003B8FEF73DFBF3E730BCBDE8C09F704786
:1021F0002DE9F041444C05468846E06800268107F9
:1022000028680DD0E16801F00301814216D1A8B120
:10221000E0686968C0F30210401C88420ED120E0DB
:10222000012804D0022805D0032807D108E021683E
:10223000890701E021684905002907DB01265FE0E5
:102240002168890302D421684903F5E7E1686A68D7
:102250006FF00F0321F0730103EB021211430143EE
:10226000E160206820F080602060FEF713FA0746E6
:1022700005E000BFFEF70EFAC01B022837D8206821
:102280000001F7D4B8F1000F18D0B8F1010F1DD03C
:10229000287D4FF07E41400801EB4060A96840EA8C
:1022A00001202169194A114008432061206840F04B
:1022B00080602060FEF7EEF907461AE0A868297BE7
:1022C000000240EAC1602169114AECE7288A1149FD
:1022D000400801EB4050A96840EA012021690E4AFC
:1022E000E1E700BFFEF7D6F9C01B022801D903269B
:1022F00006E020680001F5D52069A969084320613E
:102300003046BDE8F081000000100240FF80FFF978
:10231000FF80FF070000E0FFFF809FFFF8B51C4D26
:1023200006460024A86DC00002D5FEF77DFD0DE035
:10233000A86D40F08050A865A86D00F08050009016
:10234000FEF772FDA96D21F08051A965B0F5007FFF
:1023500004D0802E07D94FF003040AE0802E08D95C
:10236000A02E01D804E001D1022402E0702E00D199
:1023700001240848016821F0070121430160006839
:1023800000F00700A04201D00120F8BD0020F8BDF8
:1023900000100240002002407047FEF781B90000A3
:1023A00010B5B2B044216846FEF729F814212CA8D4
:1023B000FEF725F8542111A8FEF721F8182126A8C8
:1023C000FEF71DF8302000900120099000246021C4
:1023D0000690CDE907410221CDE90A100C90282092
:1023E0000D900720CDE90E0168461091FEF796FF8B
:1023F0000F202C900320CDE92D044FF4A060CDE9EF
:102400002F4004212CA8FEF783FE13481B94119043
:102410002194229411A8FEF735FD4FF40070FEF7C9
:10242000C7FC0E48816D41F080718165806D00F0C0
:10243000807031904FF00050CDE926404BF67F3050
:10244000CDE9284022202A9020202B9026A8FEF7B4
:10245000F3FC32B010BD0000202004000010024048
:102460000D48016841F4700101600C48016841F0B9
:1024700001010160002181600268094B1A4002607D
:102480008214C260026822F48022026081610249E3
:10249000C00380390860704788ED00E000100240FA
:1024A000FFFFF6EA0148FFF700BB000050020020E2
:1024B00070B50268164B4FF08046984201D0B0428A
:1024C00003D122F070044A682243124C124D984204
:1024D00005D0B04203D0A04201D0A84203D122F4DB
:1024E0004076CA6832434E6922F08002324302606D
:1024F0008A68C2620A688262984203D0A04201D010
:10250000A84201D1096901630121416170BD000048
:10251000002C0140004001400044014090F824108C
:10252000C90706D001684A68836A22F400321A4358
:102530004A6090F82410890706D501684A68C36A82
:1025400022F480321A434A6090F82410490706D5D5
:1025500001684A68036B22F480221A434A6090F8AB
:102560002410090706D501684A68436B22F400422B
:102570001A434A6090F82410C90606D501688A6893
:10258000836B22F480521A438A6090F824108906E3
:1025900006D501688A68C36B22F400521A438A6028
:1025A00090F82410490611D501684A68036C22F49A
:1025B00080121A434A60016CB1F5801F06D1016890
:1025C0004A68436C22F4C0021A434A6090F824100F
:1025D000090606D501684A68806C22F4002202438D
:1025E0004A607047F8B500260446C667FEF752F801
:1025F0000546206800686FF07E47000708D52B4627
:1026000000224FF400112046009700F031F960B924
:102610002068006840070AD52B4600224FF480014D
:102620002046009700F024F908B10320F8BD2020CF
:102630006067A06784F870600020F8BD2DE9F04164
:102640000446026880682369E569184363690027C6
:102650002B4318437D4913687D4D2B400343136082
:1026600020684268E36822F440521A4342602268BC
:10267000A0698A4201D0236A1843936823F4306327
:1026800003439360734A2368734893420DD1D0F893
:10269000880010F0030006D0012838D0022834D07A
:1026A000032821D135E001251FE06C4A93420BD16C
:1026B000D0F8880010F00C0025D0042827D0082876
:1026C00023D00C2810D124E08B420DD1D0F8880003
:1026D00010F4406017D0B0F5806F18D0B0F5006FDF
:1026E00013D0B0F5406F14D010255D4A00264FF48A
:1026F00000408B4245D175B1022D0FD0042D0FD073
:10270000082D18D10FE00025EFE70225EDE704259D
:10271000EBE70825E9E7FEF78BFD03E0104602E052
:10272000FEF7AAFDA8B3626802EB4201814202D81B
:10273000B0EB023F01D9012775E0DFF828815DB1D8
:10274000022D0CD0042D13D0082DF4D150082905EA
:10275000401846F1000105E0FEF76AFD0AE0500866
:102760004149F5E70023FDF7A1FDA0F5407156E0D2
:10277000FEF782FD6268010E0302500818187141CD
:10278000F0E7E1694FF6EF7881422FD1092DD2D2DF
:1027900000E048E0DFE805F006092005230505050F
:1027A0002600C8E7FEF744FD01E0FEF753FD4100B7
:1027B000D4F8040001EB5001B1FBF0F080B2A0F1BD
:1027C00010014145B7D84FF6F0710140C0F3420007
:1027D00001432068C16026E024496068EAE7FEF70B
:1027E0004BFDE4E74FF480316068E3E7092DA2D2A6
:1027F000DFE805F006091E052205050525009AE714
:10280000FEF716FD01E0FEF725FD0146606801EBCD
:10281000500100BFB1FBF0F080B2A0F110014145C2
:1028200089D82168C860266638466666BDE8F081AA
:10283000606802EB5001EDE7FEF71EFDE5E7616819
:1028400000EB5100B0FBF1F0E6E700000080004033
:10285000F369FFEF003801400010024000440040DF
:102860000024F400FFFC0F00000024F40048E801FD
:102870002DE9F041984617460E460446069D08E0AD
:10288000681C06D0FDF706FFA0EB0800A8420BD895
:1028900055B12068C06936EA000017D00020B84260
:1028A000EED00020BDE8F0812068016821F4D071ED
:1028B00001602068816821F001018160202060674B
:1028C000A067002084F870000320EBE70120E6E712
:1028D000D0F89002002101750846704770B5054692
:1028E000D0F89042D5F894226178D2682078904749
:1028F000022322460121284600F09BFB002070BDE8
:1029000070B50446812100F083FA0025012120469C
:10291000E56200F07DFAC4F85851D4F8900248B14D
:10292000D4F8940204F5247480688047206800F08D
:102930000AFE2560002070BD10B5D0F890422169D4
:10294000012908D1D0F8940223786178C26818462A
:10295000904700202061002010BD00000A21018066
:10296000004870475001002029210180004870472D
:10297000C00000202921018000487047EC000020A1
:1029800029210180004870471801002070B50446D5
:10299000002602230322812100F038FB01250223B7
:1029A000032229462046E56200F030FB1820C4F8D7
:1029B000585100F0C9FDC4F8900270B105460020DE
:1029C0002875D4F894024068804702232A460121E2
:1029D000204600F02EFB304670BD0126FBE7024684
:1029E0000220002902D00020C2F894127047000093
:1029F000F8B50022D0F89032ADF800200E781546D8
:102A0000144616F0600621D0202E55D14A78921E29
:102A10000A2A51D2DFE802F00F08505050505013EC
:102A20000B05887858604AE00122191D35E0488876
:102A3000000A986043E0012203F108012DE0012221
:102A40001A61CA88194600F063F838E04E7836B14A
:102A5000062E0BD00A2E23D00B2E2DD128E090F875
:102A60007422032A28D10222694616E04B882226C6
:102A7000B6EB132F07D1CA88022A00D90222D0F858
:102A800094120D6808E02126B6EB132F04D1CA88F2
:102A90000D4D092A00D90922294600F053F80EE00D
:102AA00090F87422032A07D1012203F10C01F4E704
:102AB00090F87422032A04D000F01FF80224204664
:102AC000F8BD8878D860FAE74401002010B5D0F846
:102AD0008C2252689047002010BD134610B50A465C
:102AE000002100F0A6FA002010BD134610B50A46DA
:102AF000002100F051FB002010BD10B504468021DC
:102B000000F021FB2046BDE81040002100F01BBB77
:102B100010B50323C0F84821C0F86C32C0F84C212E
:102B200013460A46002100F084FA002010BD10B5BB
:102B300005210023C0F86C121A46194600F079FAF4
:102B4000002010BD10B50223C261C0F86C320262D1
:102B500013460A46002100F01FFB002010BD10B5EF
:102B600004210023C0F86C121A46194600F014FB29
:102B7000002010BD10B50A46024903A000F0FFF87E
:102B8000004810BDBC070020437573746F6D20486A
:102B9000494420436F6E6669670000001220088078
:102BA000004870472400002010B50A46024903A0DF
:102BB00000F0E5F8004810BDBC07002043757374B1
:102BC0006F6D2048494420496E7465726661636583
:102BD000000000000420088000487047200000200A
:102BE00010B50A46024903A000F0C9F8004810BD1C
:102BF000BC07002053544D6963726F656C65637444
:102C0000726F6E696373000010B50A46024903A033
:102C100000F0B5F8004810BDBC07002053544D33F8
:102C20003220437573746F6D2048756D616E206935
:102C30006E746572666163650000000010B51A204D
:102C400008800A480168001D0468001D0068081813
:102C500009D008220649FFF755F80549042210312A
:102C60002046FFF74FF80248801E10BD9075FF1FE9
:102C7000460000200C2008800048704738000020E3
:102C8000F8B5044648880D46010A06294CD006DCF2
:102C900001290DD0022910D003294FD11BE00729AB
:102CA0004AD00F294AD1D4F88812207CCA6937E06B
:102CB000D4F88812207C0A6832E0207C02260028A2
:102CC000D4F88C0205D0C16A684688470146467030
:102CD00041E0816AF8E7C0B206282FD2DFE800F0B1
:102CE00003080D12171CD4F88812207C4A6817E0DC
:102CF000D4F88812207C8A6812E0D4F88812207CEC
:102D0000CA680DE0D4F88812207C0A6908E0D4F87B
:102D10008812207C4A6903E0D4F88812207C8A69F2
:102D200069469047014616E0207C38B9D4F88C02F9
:102D3000416B68468847F5E7207C20B1294620464C
:102D4000FFF7DBFEF8BDD4F88C02016B68468847BC
:102D5000014607204870BDF8000048B1EA8852B12A
:102D6000824200D90246ADF800202046FFF7EAFE75
:102D7000E8880028E6D12046FFF7F1FEF8BD70B5DF
:102D8000002300281ED00446002502E06D1CEDB291
:102D9000641C2678002EF9D1022404EB450414802B
:102DA0001278CA545B1C0322CA5400245B1C06E040
:102DB000CA545B1CDAB28C54521CD3B2401C027849
:102DC000002AF5D170BD10B580B1D0F88C3213B1A6
:102DD0000023C0F88C3209B1C0F88812012180F8B4
:102DE0007412027000F0C8F8002010BD022010BD5F
:102DF00010B50024D0F89802FDF765FD30B1012828
:102E000001D0022801D0022400E00124204610BD98
:102E100010B50024D0F89802FDF731FD30B101283B
:102E200001D0022801D0022400E00124204610BD78
:102E30002DE9F0411746044651B1D4F88C0242699D
:102E40001AB194F87402032851D00220BDE8F08131
:102E5000D4F86C32002504F11400022B03D0042BAB
:102E60003AD0C3B33CE0D0E903639E4207D9F11ADC
:102E7000C1608AB239462046FFF737FE12E080680B
:102E8000B0FBF3F103FB110199B9984211D3D4F8C7
:102E9000701288420DD2002211462046FFF725FE0F
:102EA000C4F8705200231A461946204600F0C1F8B3
:102EB00016E0D4F88C02C16829B194F87402032892
:102EC00001D1204688478021204600F03CF9204669
:102ED000FFF72DFE04E0FFE78021204600F033F9E4
:102EE00094F87802012804D184F8785201E0204651
:102EF00090470020AAE770B51546044649B1D4F8BA
:102F00008C0282691AB194F87402032830D002202E
:102F100070BDD4F86C1204F5A070032902D0052905
:102F20001ED027E0D0E903218A420BD9531AC3608F
:102F30000846834200D303469AB229462046FFF74B
:102F4000CCFD17E0D4F88C02016929B194F8740221
:102F5000032801D1204688472046FFF700FE09E0FC
:102F600000200146C4F86C02204600F0ECF801E0B5
:102F700020469047002070BD10B50446FDF74CFF79
:102F800019491A48C1F87042C4F89812086008201C
:102F90004860022088600861002048618861C8613B
:102FA00008620846FDF708FE08B1FDF797FA00220F
:102FB000D4F898021823114604F52674FDF736FC60
:102FC0005823002280212068FDF730FC982300223E
:102FD00081212068FDF72AFCD823002201212068E6
:102FE000FDF724FC002010BD4805002000680040CB
:102FF0000A06D0F8980201F07F0100EB411002D5DB
:1030000090F82A00704790F82A01704770B51D4665
:1030100013460024D0F898022A46FDF780FC30B110
:10302000012801D0022801D0022400E0012420461A
:1030300070BD10B50024D0F89802FDF79EFC30B1A9
:10304000012801D0022801D0022400E001242046FA
:1030500010BD70B50022044640231146FFF7D6FF8D
:1030600040260125C4F850613346002280212046C5
:10307000C4F84451FFF7CAFF6662A56184F8745230
:103080000020C4F86C026060C4F87C02D4F890029E
:1030900028B1D4F88C0200214268204690470020D5
:1030A00070BD90F8751280F874120020704710B54A
:1030B00090F87412032904D1D0F88C12C96901B1B7
:1030C0008847002010BD01740020704710B500240F
:1030D000D0F89802FDF72AFE30B1012801D002286D
:1030E00001D0022400E00124204610BD70B5044642
:1030F00000F52070054600F05FF80120C4F86C026E
:10310000B4F88602C4F8700294F8800210F01F012F
:103110000AD001290DD0022910D000F080012046EC
:1031200000F011F8002070BD2946204600F0B3F8E9
:10313000F8E72946204600F0DFF9F3E72946204664
:1031400000F032F9EEE710B50024D0F89802FDF750
:103150002BFC30B1012801D0022801D0022400E06C
:103160000124204610BD10B50024D0F89802FDF7C8
:10317000F8FD30B1012801D0022801D0022400E07E
:103180000124204610BD90F8741280F875120421B5
:1031900080F874120020704710B50024D0F898020F
:1031A000FDF737FC30B1012801D0022801D00224FC
:1031B00000E00124204610BD0A7802704A7842706F
:1031C0008A78CB7802EB032242800A794B7902EBB2
:1031D000032282808A79C97902EB0121C18070477C
:1031E0000246002011B1C2F88C12704702207047CD
:1031F00010B5D0F88C2202241AB11268904700B999
:103200000024204610BD000070B50E461E4D897882
:1032100004462970012931D894F8740202280BD091
:1032200003280FD031462046FFF767FC2978204657
:10323000BDE87040FFF74ABCD9B10320616084F853
:10324000740209E071B16068884212D0C1B22046B0
:10325000FFF73CFC297861602046FFF7C9FF022890
:103260000CD006E0022084F8740220466160FFF76B
:103270002DFC2046BDE87040FFF771BC314620466A
:10328000BDE87040FFF739BC8400002010B5FFF79F
:103290006AFF002010BD2DE9F0410A78002612F0E7
:1032A000600208D0202A01D0402A70D1D0F88C22A8
:1032B000926890476DE04B78002201250A2B66D278
:1032C000DFE803F0405D6557650805652C29FFF7C9
:1032D000D7FC5EE004468888D8B9C888C8B9488851
:1032E000802816D200F07F0794F87402032810D0CB
:1032F00084F8767239462046FFF7E8FE2046FFF74D
:103300002EFC1FB1022084F8740242E084F874524B
:103310003FE020463BE0FFF777FF3AE0CB88012B08
:1033200035D190F87432012B04D0022B02D0032B3C
:103330002DD104E08260012200F1080116E0012293
:10334000011D13E090F87422012A03D0022A01D053
:10335000032A1CD1CA88022A19D1C560D0F87C1270
:1033600009B10321C160022200F10C01FFF7EAFB61
:103370000FE0498801290CD1C0F87C5211E090F887
:103380007432012B08D0022B06D0032B04D0FFF798
:10339000B4FB3046BDE8F08149880129F9D1C0F875
:1033A0007C22FFF7DCFBF4E72DE9F0410A460446F6
:1033B00010780027097910F060030AD0202B01D083
:1033C000402B50D1D4F88C02114683682046984790
:1033D0008FE0C0F34110012806D05078D0B3012807
:1033E0002AD003283FD107E0D4F88C021146836825
:1033F0002046BDE8F041184794F87402022802D034
:10340000032872D10AE071B380296ED02046FFF7FD
:103410009AFE80212046FFF796FE6AE0508838B970
:1034200031B1802904D0D08810B92046FFF78BFE37
:103430002046FFF794FB5CE094F874020228E2D087
:10344000032852D1508898BB4806F1D02046FFF798
:10345000CFFCEDE7FFE794F874020026022803D0C2
:10346000032842D112E040E009B180293DD108068D
:1034700001F07F0000EB800004EB800101D51431E6
:1034800001E001F5A07102220E602AE0080601F0B9
:103490000F0000EB800004EB80000AD5806920B3A8
:1034A00001F07F0000EB800004EB800514350BE099
:1034B0001FE0D0F84401C0B101F07F0000EB8000B4
:1034C00004EB800505F5A07541B1802906D02046A2
:1034D000FFF78EFD10B10120286000E02E6002226F
:1034E00029462046FFF72EFB03E011462046FFF752
:1034F00004FB3846BDE8F08170B5054608780C46F7
:1035000010F0600003D0202801D0402816D195F893
:103510007402012803D0022801D003280ED120799B
:1035200001280BD8D5F88C02826828469047E1889C
:10353000014306D12846FFF712FB02E02846FFF7B9
:10354000DCFA002070BD7047004870472C05002051
:103550002DE9F0470C784FF0000C30F8243048F695
:103560008F121340CA78002A7ED0012A7DD0022A09
:1035700003D0032A7AD04FF0010C48F280021343A3
:1035800020F824300D7830F8254048F68F731C4021
:103590002C43144320F825400F7B48F6BF744BF6AC
:1035A0008F7948F2C0054CF28006EFB391F80080A5
:1035B000C24630F8287048F280181F4047EA0807D2
:1035C00020F82A70B0F8507091F80080074407EB9B
:1035D000C807B1F8088028F00108A7F80084B0F8FF
:1035E000507091F80080074407EBC807B1F80A80D3
:1035F00028F00108A7F804844F78002F7ED091F8B6
:10360000008030F828707F0405D530F828701F40FE
:10361000374320F8287091F8008030F828707F0632
:1036200007D530F8287000E02FE01F402F4320F826
:1036300028700F7830F827501D40354320F8275068
:10364000CB780D78012B30F8253003EA040301D044
:1036500083F02003134320F825300B7830F8231033
:1036600001EA0901114302E006E00BE007E020F85F
:1036700023106046BDE8F08743F400737DE743F410
:10368000C0637AE743F4806377E74F7827B3B0F8F5
:1036900050600F78064406EBC706CF8827F0010775
:1036A000A6F800740F7830F82760760605D530F854
:1036B00027601E402E4320F82760CB78012B06D0D0
:1036C0000B7830F82310214081F02001CAE70B78F5
:1036D00030F823102140C5E7B0F850400D7804447D
:1036E00004EBC504CD8825F00105A4F80454B0F816
:1036F00050400D78044404EBC50400E02DE00D6952
:1037000004F20644EDB13E2D21D26F08ED0700D042
:103710007F1C4FF6FF7505EA872525800D7830F868
:103720002540640405D530F825401C40344320F87A
:1037300025400B7830F8231001EA090181F440514B
:1037400090E7258825F4F84545F40045E5E76D093F
:103750004FF4004747EA8525DFE70F7830F82780E8
:103760005FEA484807D530F8278008EA030848EAA6
:10377000060820F827800F7830F82760760605D5F0
:1037800030F827601E402E4320F827600F7830F86D
:1037900027601E402E4320F827600D7830F8253032
:1037A00003EA090383F44053134320F825308EE7DE
:1037B000002070472DE9F04391F80C804F780A788B
:1037C00048F6BF7C4BF68F7948F2800348F2C0057B
:1037D0004CF2800648F68F74B8F1000F28D0002F05
:1037E00030F822704FEA474748D0002F05DA30F80A
:1037F00022702740374320F822700A7830F8227070
:103800007F0605D530F8227027402F4320F822701C
:103810000D7830F825202240324320F825200C78FE
:1038200030F8242002EA0C021A4320F824201AE07F
:103830007FB130F82260760605D530F82260264048
:103840002E4320F822600A7830F8221001EA0C0199
:103850000EE030F822506D0405D530F82250254096
:10386000354320F822500A7830F8221001EA090185
:10387000194320F822100020BDE8F083002F05DA5C
:1038800030F822702740374320F822700A7830F849
:103890002260760605D530F8226026402E4320F8B7
:1038A00022600E7830F8262022402A4320F8262075
:1038B0000C7830F8242002EA09021A4320F8242068
:1038C000C1E730F8581F41F40041018000207047E3
:1038D00030F8581FC1F30E0101800020704700B579
:1038E0000121A0F840100021A0F84010A0F84410D9
:1038F000A0F8501000F022F9002000BD30F8401F61
:103900004BF6807291430180002070470020704781
:1039100030B50A7BB2BB4A7848F68F7548F280040E
:10392000C2B10B7830F82320520607D530F8232097
:103930002A4048F2C0052A4320F82320CA78012AE9
:1039400020D00A7830F8221048F6BF73194081F071
:10395000200114E00A7830F822305B0407D530F8F3
:1039600022302B404CF280052B4320F822300A787D
:1039700030F822104BF68F73194081F440512143E7
:1039800020F82210002030BD10B54A780978002AAE
:1039900048F2800330F8212005D048F6BF74224059
:1039A00082F0100204E04BF68F74224082F48052C1
:1039B0001A4320F82120002010BDF0B50E46054620
:1039C00091F801C00022097B3469B06948F2800790
:1039D000BCF1010F04D0A0424FD9001BB0614EE0F2
:1039E000A04202D9001BB06101E00446B26169B196
:1039F000307835F820104906B5F85010294401EB0D
:103A0000C00012D5A0F80644728911E0A3B2F28872
:103A10002846716900F0C0F8B5F8500031782844A4
:103A200000EBC100A0F802441EE0A0F80244328975
:103A3000A3B22846716900F0AFF8707848F68F712C
:103A400010B1012807D00FE0327835F82200084085
:103A500048F2C00105E0327835F8220008404CF207
:103A60008001084325F82200317835F8210048F616
:103A7000BF72104080F030005BE00446B2614FF648
:103A8000FF724FF4004319B1BCF1000F19D02BE0C5
:103A9000B5F850003178284400EBC10000F2064030
:103AA0002CB13E2C30D3610943EA812107E0018823
:103AB00021F4F84141F4004101E002EA8121018052
:103AC0002FE0B5F850003178284400EBC10000F237
:103AD00002407CB13E2C13D261085FEAC47C00D066
:103AE000491C02EA8121018070780028D0D0012889
:103AF0000FD016E0018821F4F84141F40041F2E7CB
:103B0000610943EA8121EEE76108E307D5D0491C4A
:103B1000D3E7B5F850104819317800EBC100A0F890
:103B20000644317835F821004BF68F72104080F44E
:103B30004050384325F821000020F0BD30F8401FE8
:103B40004BF6807211430180002070470148FCF75A
:103B500075BF000048050020B0F84400704710B55C
:103B600010445C0800F5806008D030F8022B01F8A2
:103B7000012B120A01F8012B641EF6D1DA0701D0DD
:103B80000078087010BD0020704711B98021A0F89E
:103B90004C1000207047000010B55B1C10445B08FF
:103BA00000F580600AD000BF11F8012B5B1E11F8F0
:103BB000014B42EA042220F8022BF5D110BDFEE7AA
:103BC0000907090E002804DB00F1E02080F800144A
:103BD000704700F00F0000F1E02080F8141D7047DE
:103BE000FCF766FDFEF7DCFBFEF7A8F8FEF724F90C
:103BF000FEF734F9FEF75AF9FEF77CF9FEF7FEF806
:103C0000FEE74FF04070E1EE100A70470000000040
:103C1000000000000102030406070809A086010055
:103C2000400D0300801A060000350C0040420F00D2
:103C300080841E0000093D0000127A000024F40078
:103C400000366E010048E801006CDC020000000054
:103C500001020304743C0008000000205C01000025
:103C6000C8010008203D00085C010020C4100000CD
:103C700024020008139D2B1B08D5041AE104130924
:103C80002C1B083D041A750C1AA9041A750C30096E
:103C9000040309041201010216408304505726024E
:103CA0000102030114050F0C2D0107100219031B5B
:103CB0001A0322C022601420CD041B08C9041AD1A3
:103CC00004321019436153093D138D291B08010467
:103CD0001AF104411A390813D1281B08DD04C11A4E
:103CE00075181A69041A81041A5D0414090229134B
:103CF000010125C03209042A028915092111011484
:103D00000122021607058103022D05070501072977
:103D10001A09562C691A31130A0629082A40E000AC
:040000050800018D61
:00000001FF
